:020000040000FA
:0400000003EF00F01A
:020004000000FA
:0A0006000E01700ED86FD96F080EBE
:10001000DE6F8A6B896A886A0F01050E5F6F000EBA
:10002000586F010E576FFF0E5E6F5C6F5D6B000EB9
:10003000566F000E5B6F000E5A6F000E596F800EE8
:10004000606E0F01050E5F6F000E586F0F0E576F39
:10005000FF0E5E6F5C6F5D6B000E566F000E5B6F88
:10006000000E5A6F000E596F840E606E040EAE6E55
:100070000E01060EF86F8A82C80EBC6E8C0EA86E3A
:10008000010EA76E800EA66E010EBF6EB00EBD6E85
:100090008A92800E606E608060B04CEF00F00F01BD
:1000A0006450016E0F016350026E000E646097ECA5
:1000B00000F0200E64607BEC00F0400E646080EC89
:1000C00000F0600E646083EC00F0800E646086ECEB
:1000D00000F0A00E646089EC00F0C00E64608CEC4F
:1000E00000F0E00E646091EC00F0FF0E646094ECB0
:1000F00000F049EF00F0010E836E3D0EBC6E120061
:10010000030E836E1200070E836E12000F0E836EB5
:100110001200100E846E1200300E846E6F0EBC6ED4
:100120001200700E846E1200F00E846E1200836A4C
:10013000846A120097EC00F0000EDE6F12007BEC78
:1001400000F0010EDE6F120080EC00F0020EDE6F98
:10015000120083EC00F0030EDE6F120086EC00F05C
:10016000040EDE6F120089EC00F0050EDE6F120047
:100170008CEC00F0060EDE6F120091EC00F0070E22
:0E018000DE6F120094EC00F0080EDE6F12002D
:020000040030CA
:01000000FC03
:01000100FFFF
:01000200FFFE
:01000300FFFD
:010004009F5C
:01000500FFFB
:01000600FFFA
:01000700DF19
:01000800FFF8
:01000A00FFF6
:01000B00FFF5
:00000001FF
