:020000040000FA
:0400000003EF00F01A
:020004000000FA
:0A0006000E01700ED86FD96F080EBE
:10001000DE6F0F01000E196F0F01050E5F6F000EEE
:10002000586F200E576FFF0E5E6F5C6F5D6B000E9A
:10003000566F000E5B6F000E5A6F000E596F800EE8
:10004000606E040EAE6E0E01060EF86F8A82C80E48
:10005000BC6E8C0EA86E010EA76E800EA66E010EF1
:10006000BF6EB00EBD6E8A928A6B896A886A0E0175
:100070008A968A9485844AEC00F03BEF00F0FA0EF1
:10008000046E200E056E052E43EF00F0042E41EFA6
:1000900000F0120099EC00F03FEC00F0A1EC01F050
:1000A0003FEC00F0AFEC00F03FEC00F0A1EC01F011
:1000B0003FEC00F0A1EC01F03FEC00F0A1EC01F00E
:1000C0003FEC00F0DBEC00F03FEC00F0A1EC01F0C5
:1000D0003FEC00F0A1EC01F03FEC00F0A1EC01F0EE
:1000E0003FEC00F0120085860000000000000000D8
:1000F00085960000000000000000000000000000E5
:1001000000000000000000001200858600000000D2
:1001100000000000000000000000000000008596C4
:1001200000000000000000000000000000000000CF
:100130001200D2EC01F0D2EC01F0D2EC01F0D2ECE2
:1001400001F0D2EC01F0120003EC02F003EC02F03B
:1001500003EC02F003EC02F003EC02F0120034ECCA
:1001600002F034EC02F034EC02F034EC02F034EC47
:1001700002F0120065EC02F065EC02F065EC02F0B2
:1001800065EC02F065EC02F0120096EC02F096ECE1
:1001900002F096EC02F096EC02F096EC02F01200FF
:1001A000C7EC02F0C7EC02F0C7EC02F0C7EC02F0BB
:1001B000C7EC02F01200F8EC02F0F8EC02F0F8ECF8
:1001C00002F0F8EC02F0F8EC02F0120029EC03F077
:1001D00029EC03F029EC03F029EC03F029EC03F0FF
:1001E0001200E2EC04F0E2EC04F0E2EC04F0E2ECE9
:1001F00004F0E2EC04F0120013EC05F013EC05F04F
:1002000013EC05F013EC05F013EC05F0120044ECD0
:1002100005F044EC05F044EC05F044EC05F044EC4A
:1002200005F0120075EC05F075EC05F075EC05F0C5
:1002300075EC05F075EC05F01200A6EC05F0A6ECE7
:1002400005F0A6EC05F0A6EC05F0A6EC05F0120012
:10025000D7EC05F0D7EC05F0D7EC05F0D7EC05F0BE
:10026000D7EC05F0120008EC06F008EC06F008ECFC
:1002700006F008EC06F008EC06F0120039EC06F087
:1002800039EC06F039EC06F039EC06F039EC06F002
:1002900012005AEC03F05AEC03F05AEC03F05AEC5B
:1002A00003F05AEC03F012008BEC03F08BEC03F03C
:1002B0008BEC03F08BEC03F08BEC03F01200BCEC46
:1002C00003F0BCEC03F0BCEC03F0BCEC03F0BCECC2
:1002D00003F01200EDEC03F0EDEC03F0EDEC03F0B5
:1002E000EDEC03F0EDEC03F012001EEC04F01EEC5C
:1002F00004F01EEC04F01EEC04F01EEC04F01200FE
:100300004FEC04F04FEC04F04FEC04F04FEC04F031
:100310004FEC04F0120080EC04F080EC04F080EC70
:1003200004F080EC04F080EC04F01200B1EC04F076
:10033000B1EC04F0B1EC04F0B1EC04F0B1EC04F079
:10034000120073EC00F073EC00F073EC00F073EC4F
:1003500000F073EC00F073EC00F073EC00F073EC61
:1003600000F073EC00F073EC00F073EC00F073EC51
:1003700000F073EC00F073EC00F073EC00F073EC41
:1003800000F073EC00F073EC00F073EC00F073EC31
:1003900000F073EC00F073EC00F073EC00F073EC21
:1003A00000F0120085EC00F073EC00F073EC00F04C
:1003B00073EC00F073EC00F073EC00F073EC00F001
:1003C00073EC00F073EC00F073EC00F073EC00F0F1
:1003D00073EC00F073EC00F073EC00F073EC00F0E1
:1003E00073EC00F073EC00F073EC00F073EC00F0D1
:1003F00073EC00F073EC00F073EC00F073EC00F0C1
:1004000073EC00F0120073EC00F085EC00F073EC7C
:1004100000F073EC00F073EC00F073EC00F073ECA0
:1004200000F073EC00F073EC00F073EC00F073EC90
:1004300000F073EC00F073EC00F073EC00F073EC80
:1004400000F073EC00F073EC00F073EC00F073EC70
:1004500000F073EC00F073EC00F073EC00F073EC60
:1004600000F073EC00F0120073EC00F073EC00F09D
:1004700085EC00F073EC00F073EC00F073EC00F02E
:1004800073EC00F073EC00F073EC00F073EC00F030
:1004900073EC00F073EC00F073EC00F073EC00F020
:1004A00073EC00F073EC00F073EC00F073EC00F010
:1004B00073EC00F073EC00F073EC00F073EC00F000
:1004C00073EC00F073EC00F0120073EC00F073ECCE
:1004D00000F073EC00F085EC00F073EC00F073ECCE
:1004E00000F073EC00F073EC00F073EC00F073ECD0
:1004F00000F073EC00F073EC00F073EC00F073ECC0
:1005000000F073EC00F073EC00F073EC00F073ECAF
:1005100000F073EC00F073EC00F073EC00F073EC9F
:1005200000F073EC00F073EC00F0120073EC00F0DC
:1005300073EC00F073EC00F073EC00F085EC00F06D
:1005400073EC00F073EC00F073EC00F073EC00F06F
:1005500073EC00F073EC00F073EC00F073EC00F05F
:1005600073EC00F073EC00F073EC00F073EC00F04F
:1005700073EC00F073EC00F073EC00F073EC00F03F
:1005800073EC00F073EC00F073EC00F0120073EC0D
:1005900000F073EC00F073EC00F073EC00F073EC1F
:1005A00000F085EC00F085EC00F085EC00F073ECD9
:1005B00000F073EC00F073EC00F073EC00F073ECFF
:1005C00000F073EC00F073EC00F073EC00F073ECEF
:1005D00000F073EC00F073EC00F073EC00F073ECDF
:1005E00000F073EC00F073EC00F073EC00F012001C
:1005F00073EC00F073EC00F073EC00F073EC00F0BF
:1006000073EC00F085EC00F073EC00F085EC00F08A
:1006100073EC00F073EC00F073EC00F073EC00F09E
:1006200073EC00F073EC00F073EC00F073EC00F08E
:1006300073EC00F073EC00F073EC00F073EC00F07E
:1006400073EC00F073EC00F073EC00F073EC00F06E
:10065000120073EC00F073EC00F073EC00F073EC3C
:1006600000F073EC00F073EC00F085EC00F085EC2A
:1006700000F073EC00F073EC00F073EC00F073EC3E
:1006800000F073EC00F073EC00F073EC00F073EC2E
:1006900000F073EC00F073EC00F073EC00F073EC1E
:1006A00000F073EC00F073EC00F073EC00F073EC0E
:1006B00000F0120073EC00F073EC00F073EC00F04B
:1006C00073EC00F073EC00F073EC00F073EC00F0EE
:1006D00073EC00F085EC00F073EC00F073EC00F0CC
:1006E00073EC00F073EC00F073EC00F073EC00F0CE
:1006F00073EC00F073EC00F073EC00F073EC00F0BE
:1007000073EC00F073EC00F073EC00F073EC00F0AD
:1007100073EC00F0120073EC00F073EC00F073EC7B
:1007200000F073EC00F073EC00F073EC00F073EC8D
:1007300000F073EC00F073EC00F085EC00F073EC6B
:1007400000F073EC00F073EC00F073EC00F073EC6D
:1007500000F073EC00F073EC00F073EC00F073EC5D
:1007600000F073EC00F073EC00F073EC00F073EC4D
:1007700000F073EC00F0120073EC00F073EC00F08A
:1007800073EC00F073EC00F073EC00F073EC00F02D
:1007900073EC00F073EC00F073EC00F073EC00F01D
:1007A00085EC00F073EC00F073EC00F073EC00F0FB
:1007B00073EC00F073EC00F073EC00F073EC00F0FD
:1007C00073EC00F073EC00F073EC00F073EC00F0ED
:1007D00073EC00F073EC00F0120073EC00F073ECBB
:1007E00000F073EC00F073EC00F073EC00F073ECCD
:1007F00000F073EC00F073EC00F073EC00F073ECBD
:1008000000F073EC00F085EC00F073EC00F073EC9A
:1008100000F073EC00F073EC00F073EC00F073EC9C
:1008200000F073EC00F073EC00F073EC00F073EC8C
:1008300000F073EC00F073EC00F0120073EC00F0C9
:1008400073EC00F073EC00F073EC00F073EC00F06C
:1008500073EC00F073EC00F073EC00F073EC00F05C
:1008600073EC00F073EC00F073EC00F085EC00F03A
:1008700073EC00F073EC00F073EC00F073EC00F03C
:1008800073EC00F073EC00F073EC00F073EC00F02C
:1008900073EC00F073EC00F073EC00F0120073ECFA
:1008A00000F073EC00F073EC00F073EC00F073EC0C
:1008B00000F073EC00F073EC00F073EC00F073ECFC
:1008C00000F073EC00F073EC00F073EC00F073ECEC
:1008D00000F085EC00F085EC00F085EC00F073ECA6
:1008E00000F073EC00F073EC00F073EC00F073ECCC
:1008F00000F073EC00F073EC00F073EC00F0120009
:1009000073EC00F073EC00F073EC00F073EC00F0AB
:1009100073EC00F073EC00F073EC00F073EC00F09B
:1009200073EC00F073EC00F073EC00F073EC00F08B
:1009300073EC00F085EC00F073EC00F085EC00F057
:1009400073EC00F073EC00F073EC00F073EC00F06B
:1009500073EC00F073EC00F073EC00F073EC00F05B
:10096000120073EC00F073EC00F073EC00F073EC29
:1009700000F073EC00F073EC00F073EC00F073EC3B
:1009800000F073EC00F073EC00F073EC00F073EC2B
:1009900000F073EC00F073EC00F085EC00F085ECF7
:1009A00000F073EC00F073EC00F073EC00F073EC0B
:1009B00000F073EC00F073EC00F073EC00F073ECFB
:1009C00000F0120073EC00F073EC00F073EC00F038
:1009D00073EC00F073EC00F073EC00F073EC00F0DB
:1009E00073EC00F073EC00F073EC00F073EC00F0CB
:1009F00073EC00F073EC00F073EC00F073EC00F0BB
:100A000073EC00F085EC00F073EC00F073EC00F098
:100A100073EC00F073EC00F073EC00F073EC00F09A
:100A200073EC00F0120073EC00F073EC00F073EC68
:100A300000F073EC00F073EC00F073EC00F073EC7A
:100A400000F073EC00F073EC00F073EC00F073EC6A
:100A500000F073EC00F073EC00F073EC00F073EC5A
:100A600000F073EC00F073EC00F085EC00F073EC38
:100A700000F073EC00F073EC00F073EC00F073EC3A
:100A800000F073EC00F0120073EC00F073EC00F077
:100A900073EC00F073EC00F073EC00F073EC00F01A
:100AA00073EC00F073EC00F073EC00F073EC00F00A
:100AB00073EC00F073EC00F073EC00F073EC00F0FA
:100AC00073EC00F073EC00F073EC00F073EC00F0EA
:100AD00085EC00F073EC00F073EC00F073EC00F0C8
:100AE00073EC00F073EC00F0120073EC00F073ECA8
:100AF00000F073EC00F073EC00F073EC00F073ECBA
:100B000000F073EC00F073EC00F073EC00F073ECA9
:100B100000F073EC00F073EC00F073EC00F073EC99
:100B200000F073EC00F073EC00F073EC00F073EC89
:100B300000F073EC00F085EC00F073EC00F073EC67
:100B400000F073EC00F073EC00F0120073EC00F0B6
:100B500073EC00F073EC00F073EC00F073EC00F059
:100B600073EC00F073EC00F073EC00F073EC00F049
:100B700073EC00F073EC00F073EC00F073EC00F039
:100B800073EC00F073EC00F073EC00F073EC00F029
:100B900073EC00F073EC00F073EC00F085EC00F007
:100BA00073EC00F073EC00F073EC00F0120073ECE7
:100BB00000F073EC00F073EC00F073EC00F073ECF9
:100BC00000F073EC00F073EC00F073EC00F073ECE9
:100BD00000F073EC00F073EC00F073EC00F073ECD9
:100BE00000F073EC00F073EC00F073EC00F073ECC9
:100BF00000F073EC00F073EC00F073EC00F073ECB9
:100C000000F085EC00F085EC00F085EC00F01200BF
:100C100073EC00F073EC00F073EC00F073EC00F098
:100C200073EC00F073EC00F073EC00F073EC00F088
:100C300073EC00F073EC00F073EC00F073EC00F078
:100C400073EC00F073EC00F073EC00F073EC00F068
:100C500073EC00F073EC00F073EC00F073EC00F058
:100C600073EC00F085EC00F073EC00F085EC00F024
:100C7000120073EC00F073EC00F073EC00F073EC16
:100C800000F073EC00F073EC00F073EC00F073EC28
:100C900000F073EC00F073EC00F073EC00F073EC18
:100CA00000F073EC00F073EC00F073EC00F073EC08
:100CB00000F073EC00F073EC00F073EC00F073ECF8
:100CC00000F073EC00F073EC00F085EC00F085ECC4
:100CD00000F01200010E836E3D0EBC6E1200030E7A
:100CE000836E1200070E836E12000F0E836E1200C9
:100CF000100E846E1200300E846E6F0EBC6E1200E9
:100D0000700E846E1200F00E846E1200836A846A84
:020D10001200CF
:020000040030CA
:010000008C73
:01000100FFFF
:01000200FFFE
:01000300FFFD
:010004009F5C
:01000500FFFB
:01000600FFFA
:01000700DF19
:01000800FFF8
:01000A00FFF6
:01000B00FFF5
:00000001FF
