:020000040000FA
:0400000003EF00F01A
:020004000000FA
:0A0006000F0119931995BCEC00F0EE
:100010000E01700ED86FD96F080EDE6F0F01000E43
:10002000196F0F01050E5F6F000E586F200E576F8E
:10003000FF0E5E6F5C6F5D6B000E566F000E5B6FA8
:10004000000E5A6F000E596F800E606E040EAE6E79
:100050000E01060EF86F8A82C80EBC6E8C0EA86E5A
:10006000010EA76E800EA66E010EBF6EB00EBD6EA5
:100070008A928A6B886A0E018A968A94858488900F
:10008000889288948896010E836E6AEC00F08EA2A6
:100090005AEF00F043EF00F0020E836E93EC00F095
:1000A0008EA255EF00F04CEF00F08EB243EF00F05F
:1000B00055EF00F08EB24CEF00F05AEF00F0FA0E60
:1000C000046E200E056E052E63EF00F0042E61EF26
:1000D00000F01200E6EC00F05FEC00F0EEEC01F056
:1000E0005FEC00F0FCEC00F05FEC00F0EEEC01F0F7
:1000F0005FEC00F0EEEC01F05FEC00F0EEEC01F0F4
:100100005FEC00F028EC01F05FEC00F0EEEC01F0A9
:100110005FEC00F0EEEC01F05FEC00F0EEEC01F0D3
:100120005FEC00F012003EEC01F05FEC00F0EEEC52
:1001300001F05FEC00F054EC01F05FEC00F0EEEC4D
:1001400001F05FEC00F0EEEC01F05FEC00F0EEECA3
:1001500001F05FEC00F080EC01F05FEC00F0EEEC01
:1001600001F05FEC00F0EEEC01F05FEC00F0EEEC83
:1001700001F05FEC00F012000F0189828984120007
:100180008586000000000000000085960000000049
:10019000000000000000000000000000000000005F
:1001A0000000120085860000000000000000000032
:1001B0000000000000000000859600000000000024
:1001C0000000000000000000000012001FEC02F020
:1001D0001FEC02F01FEC02F01FEC02F01FEC02F02B
:1001E000120050EC02F050EC02F050EC02F050EC37
:1001F00002F050EC02F0120081EC02F081EC02F00F
:1002000081EC02F081EC02F081EC02F01200B2EC21
:1002100002F0B2EC02F0B2EC02F0B2EC02F0B2EC9E
:1002200002F01200E3EC02F0E3EC02F0E3EC02F087
:10023000E3EC02F0E3EC02F0120014EC03F014EC37
:1002400003F014EC03F014EC03F014EC03F01200D0
:1002500045EC03F045EC03F045EC03F045EC03F00E
:1002600045EC03F0120076EC03F076EC03F076EC4C
:1002700003F076EC03F076EC03F012002FEC05F0BF
:100280002FEC05F02FEC05F02FEC05F02FEC05F02E
:10029000120060EC05F060EC05F060EC05F060EC3D
:1002A00005F060EC05F0120091EC05F091EC05F022
:1002B00091EC05F091EC05F091EC05F01200C2EC28
:1002C00005F0C2EC05F0C2EC05F0C2EC05F0C2ECA2
:1002D00005F01200F3EC05F0F3EC05F0F3EC05F09B
:1002E000F3EC05F0F3EC05F0120024EC06F024EC3E
:1002F00006F024EC06F024EC06F024EC06F01200E4
:1003000055EC06F055EC06F055EC06F055EC06F011
:1003100055EC06F0120086EC06F086EC06F086EC52
:1003200006F086EC06F086EC06F01200A7EC03F06F
:10033000A7EC03F0A7EC03F0A7EC03F0A7EC03F0A5
:100340001200D8EC03F0D8EC03F0D8EC03F0D8ECB2
:1003500003F0D8EC03F0120009EC04F009EC04F00F
:1003600009EC04F009EC04F009EC04F012003AEC9A
:1003700004F03AEC04F03AEC04F03AEC04F03AEC15
:1003800004F012006BEC04F06BEC04F06BEC04F086
:100390006BEC04F06BEC04F012009CEC04F09CECB1
:1003A00004F09CEC04F09CEC04F09CEC04F01200D3
:1003B000CDEC04F0CDEC04F0CDEC04F0CDEC04F089
:1003C000CDEC04F01200FEEC04F0FEEC04F0FEECC8
:1003D00004F0FEEC04F0FEEC04F01200C0EC00F0BF
:1003E000C0EC00F0C0EC00F0C0EC00F0C0EC00F09D
:1003F000C0EC00F0C0EC00F0C0EC00F0C0EC00F08D
:10040000C0EC00F0C0EC00F0C0EC00F0C0EC00F07C
:10041000C0EC00F0C0EC00F0C0EC00F0C0EC00F06C
:10042000C0EC00F0C0EC00F0C0EC00F0C0EC00F05C
:10043000C0EC00F0C0EC00F0C0EC00F01200D2EC18
:1004400000F0C0EC00F0C0EC00F0C0EC00F0C0EC3C
:1004500000F0C0EC00F0C0EC00F0C0EC00F0C0EC2C
:1004600000F0C0EC00F0C0EC00F0C0EC00F0C0EC1C
:1004700000F0C0EC00F0C0EC00F0C0EC00F0C0EC0C
:1004800000F0C0EC00F0C0EC00F0C0EC00F0C0ECFC
:1004900000F0C0EC00F0C0EC00F0C0EC00F0120086
:1004A000C0EC00F0D2EC00F0C0EC00F0C0EC00F0CA
:1004B000C0EC00F0C0EC00F0C0EC00F0C0EC00F0CC
:1004C000C0EC00F0C0EC00F0C0EC00F0C0EC00F0BC
:1004D000C0EC00F0C0EC00F0C0EC00F0C0EC00F0AC
:1004E000C0EC00F0C0EC00F0C0EC00F0C0EC00F09C
:1004F000C0EC00F0C0EC00F0C0EC00F0C0EC00F08C
:100500001200C0EC00F0C0EC00F0D2EC00F0C0EC47
:1005100000F0C0EC00F0C0EC00F0C0EC00F0C0EC6B
:1005200000F0C0EC00F0C0EC00F0C0EC00F0C0EC5B
:1005300000F0C0EC00F0C0EC00F0C0EC00F0C0EC4B
:1005400000F0C0EC00F0C0EC00F0C0EC00F0C0EC3B
:1005500000F0C0EC00F0C0EC00F0C0EC00F0C0EC2B
:1005600000F01200C0EC00F0C0EC00F0C0EC00F0B5
:10057000D2EC00F0C0EC00F0C0EC00F0C0EC00F0F9
:10058000C0EC00F0C0EC00F0C0EC00F0C0EC00F0FB
:10059000C0EC00F0C0EC00F0C0EC00F0C0EC00F0EB
:1005A000C0EC00F0C0EC00F0C0EC00F0C0EC00F0DB
:1005B000C0EC00F0C0EC00F0C0EC00F0C0EC00F0CB
:1005C000C0EC00F01200C0EC00F0C0EC00F0C0EC99
:1005D00000F0C0EC00F0D2EC00F0C0EC00F0C0EC99
:1005E00000F0C0EC00F0C0EC00F0C0EC00F0C0EC9B
:1005F00000F0C0EC00F0C0EC00F0C0EC00F0C0EC8B
:1006000000F0C0EC00F0C0EC00F0C0EC00F0C0EC7A
:1006100000F0C0EC00F0C0EC00F0C0EC00F0C0EC6A
:1006200000F0C0EC00F01200C0EC00F0C0EC00F0F4
:10063000C0EC00F0C0EC00F0C0EC00F0D2EC00F038
:10064000D2EC00F0D2EC00F0C0EC00F0C0EC00F016
:10065000C0EC00F0C0EC00F0C0EC00F0C0EC00F02A
:10066000C0EC00F0C0EC00F0C0EC00F0C0EC00F01A
:10067000C0EC00F0C0EC00F0C0EC00F0C0EC00F00A
:10068000C0EC00F0C0EC00F01200C0EC00F0C0ECD8
:1006900000F0C0EC00F0C0EC00F0C0EC00F0D2ECD8
:1006A00000F0C0EC00F0D2EC00F0C0EC00F0C0ECC8
:1006B00000F0C0EC00F0C0EC00F0C0EC00F0C0ECCA
:1006C00000F0C0EC00F0C0EC00F0C0EC00F0C0ECBA
:1006D00000F0C0EC00F0C0EC00F0C0EC00F0C0ECAA
:1006E00000F0C0EC00F0C0EC00F01200C0EC00F034
:1006F000C0EC00F0C0EC00F0C0EC00F0C0EC00F08A
:10070000C0EC00F0D2EC00F0D2EC00F0C0EC00F055
:10071000C0EC00F0C0EC00F0C0EC00F0C0EC00F069
:10072000C0EC00F0C0EC00F0C0EC00F0C0EC00F059
:10073000C0EC00F0C0EC00F0C0EC00F0C0EC00F049
:10074000C0EC00F0C0EC00F0C0EC00F01200C0EC17
:1007500000F0C0EC00F0C0EC00F0C0EC00F0C0EC29
:1007600000F0C0EC00F0C0EC00F0C0EC00F0D2EC07
:1007700000F0C0EC00F0C0EC00F0C0EC00F0C0EC09
:1007800000F0C0EC00F0C0EC00F0C0EC00F0C0ECF9
:1007900000F0C0EC00F0C0EC00F0C0EC00F0C0ECE9
:1007A00000F0C0EC00F0C0EC00F0C0EC00F0120073
:1007B000C0EC00F0C0EC00F0C0EC00F0C0EC00F0C9
:1007C000C0EC00F0C0EC00F0C0EC00F0C0EC00F0B9
:1007D000C0EC00F0D2EC00F0C0EC00F0C0EC00F097
:1007E000C0EC00F0C0EC00F0C0EC00F0C0EC00F099
:1007F000C0EC00F0C0EC00F0C0EC00F0C0EC00F089
:10080000C0EC00F0C0EC00F0C0EC00F0C0EC00F078
:100810001200C0EC00F0C0EC00F0C0EC00F0C0EC46
:1008200000F0C0EC00F0C0EC00F0C0EC00F0C0EC58
:1008300000F0C0EC00F0C0EC00F0D2EC00F0C0EC36
:1008400000F0C0EC00F0C0EC00F0C0EC00F0C0EC38
:1008500000F0C0EC00F0C0EC00F0C0EC00F0C0EC28
:1008600000F0C0EC00F0C0EC00F0C0EC00F0C0EC18
:1008700000F01200C0EC00F0C0EC00F0C0EC00F0A2
:10088000C0EC00F0C0EC00F0C0EC00F0C0EC00F0F8
:10089000C0EC00F0C0EC00F0C0EC00F0C0EC00F0E8
:1008A000D2EC00F0C0EC00F0C0EC00F0C0EC00F0C6
:1008B000C0EC00F0C0EC00F0C0EC00F0C0EC00F0C8
:1008C000C0EC00F0C0EC00F0C0EC00F0C0EC00F0B8
:1008D000C0EC00F01200C0EC00F0C0EC00F0C0EC86
:1008E00000F0C0EC00F0C0EC00F0C0EC00F0C0EC98
:1008F00000F0C0EC00F0C0EC00F0C0EC00F0C0EC88
:1009000000F0C0EC00F0D2EC00F0C0EC00F0C0EC65
:1009100000F0C0EC00F0C0EC00F0C0EC00F0C0EC67
:1009200000F0C0EC00F0C0EC00F0C0EC00F0C0EC57
:1009300000F0C0EC00F01200C0EC00F0C0EC00F0E1
:10094000C0EC00F0C0EC00F0C0EC00F0C0EC00F037
:10095000C0EC00F0C0EC00F0C0EC00F0C0EC00F027
:10096000C0EC00F0C0EC00F0C0EC00F0D2EC00F005
:10097000D2EC00F0D2EC00F0C0EC00F0C0EC00F0E3
:10098000C0EC00F0C0EC00F0C0EC00F0C0EC00F0F7
:10099000C0EC00F0C0EC00F01200C0EC00F0C0ECC5
:1009A00000F0C0EC00F0C0EC00F0C0EC00F0C0ECD7
:1009B00000F0C0EC00F0C0EC00F0C0EC00F0C0ECC7
:1009C00000F0C0EC00F0C0EC00F0C0EC00F0D2ECA5
:1009D00000F0C0EC00F0D2EC00F0C0EC00F0C0EC95
:1009E00000F0C0EC00F0C0EC00F0C0EC00F0C0EC97
:1009F00000F0C0EC00F0C0EC00F01200C0EC00F021
:100A0000C0EC00F0C0EC00F0C0EC00F0C0EC00F076
:100A1000C0EC00F0C0EC00F0C0EC00F0C0EC00F066
:100A2000C0EC00F0C0EC00F0C0EC00F0C0EC00F056
:100A3000C0EC00F0D2EC00F0D2EC00F0C0EC00F022
:100A4000C0EC00F0C0EC00F0C0EC00F0C0EC00F036
:100A5000C0EC00F0C0EC00F0C0EC00F01200C0EC04
:100A600000F0C0EC00F0C0EC00F0C0EC00F0C0EC16
:100A700000F0C0EC00F0C0EC00F0C0EC00F0C0EC06
:100A800000F0C0EC00F0C0EC00F0C0EC00F0C0ECF6
:100A900000F0C0EC00F0C0EC00F0C0EC00F0D2ECD4
:100AA00000F0C0EC00F0C0EC00F0C0EC00F0C0ECD6
:100AB00000F0C0EC00F0C0EC00F0C0EC00F0120060
:100AC000C0EC00F0C0EC00F0C0EC00F0C0EC00F0B6
:100AD000C0EC00F0C0EC00F0C0EC00F0C0EC00F0A6
:100AE000C0EC00F0C0EC00F0C0EC00F0C0EC00F096
:100AF000C0EC00F0C0EC00F0C0EC00F0C0EC00F086
:100B0000C0EC00F0D2EC00F0C0EC00F0C0EC00F063
:100B1000C0EC00F0C0EC00F0C0EC00F0C0EC00F065
:100B20001200C0EC00F0C0EC00F0C0EC00F0C0EC33
:100B300000F0C0EC00F0C0EC00F0C0EC00F0C0EC45
:100B400000F0C0EC00F0C0EC00F0C0EC00F0C0EC35
:100B500000F0C0EC00F0C0EC00F0C0EC00F0C0EC25
:100B600000F0C0EC00F0C0EC00F0D2EC00F0C0EC03
:100B700000F0C0EC00F0C0EC00F0C0EC00F0C0EC05
:100B800000F01200C0EC00F0C0EC00F0C0EC00F08F
:100B9000C0EC00F0C0EC00F0C0EC00F0C0EC00F0E5
:100BA000C0EC00F0C0EC00F0C0EC00F0C0EC00F0D5
:100BB000C0EC00F0C0EC00F0C0EC00F0C0EC00F0C5
:100BC000C0EC00F0C0EC00F0C0EC00F0C0EC00F0B5
:100BD000D2EC00F0C0EC00F0C0EC00F0C0EC00F093
:100BE000C0EC00F01200C0EC00F0C0EC00F0C0EC73
:100BF00000F0C0EC00F0C0EC00F0C0EC00F0C0EC85
:100C000000F0C0EC00F0C0EC00F0C0EC00F0C0EC74
:100C100000F0C0EC00F0C0EC00F0C0EC00F0C0EC64
:100C200000F0C0EC00F0C0EC00F0C0EC00F0C0EC54
:100C300000F0C0EC00F0D2EC00F0C0EC00F0C0EC32
:100C400000F0C0EC00F01200C0EC00F0C0EC00F0CE
:100C5000C0EC00F0C0EC00F0C0EC00F0C0EC00F024
:100C6000C0EC00F0C0EC00F0C0EC00F0C0EC00F014
:100C7000C0EC00F0C0EC00F0C0EC00F0C0EC00F004
:100C8000C0EC00F0C0EC00F0C0EC00F0C0EC00F0F4
:100C9000C0EC00F0C0EC00F0C0EC00F0D2EC00F0D2
:100CA000D2EC00F0D2EC00F01200C0EC00F0C0EC8E
:100CB00000F0C0EC00F0C0EC00F0C0EC00F0C0ECC4
:100CC00000F0C0EC00F0C0EC00F0C0EC00F0C0ECB4
:100CD00000F0C0EC00F0C0EC00F0C0EC00F0C0ECA4
:100CE00000F0C0EC00F0C0EC00F0C0EC00F0C0EC94
:100CF00000F0C0EC00F0C0EC00F0C0EC00F0D2EC72
:100D000000F0C0EC00F0D2EC00F01200C0EC00F0FB
:100D1000C0EC00F0C0EC00F0C0EC00F0C0EC00F063
:100D2000C0EC00F0C0EC00F0C0EC00F0C0EC00F053
:100D3000C0EC00F0C0EC00F0C0EC00F0C0EC00F043
:100D4000C0EC00F0C0EC00F0C0EC00F0C0EC00F033
:100D5000C0EC00F0C0EC00F0C0EC00F0C0EC00F023
:100D6000C0EC00F0D2EC00F0D2EC00F01200010E6A
:100D7000836E3D0EBC6E1200030E836E1200070ED2
:100D8000836E12000F0E836E1200100E846E12001E
:100D9000300E846E6F0EBC6E1200700E846E1200E8
:0C0DA000F00E846E1200836A846A120058
:020000040030CA
:010000008C73
:01000100FFFF
:01000200FFFE
:01000300FFFD
:010004009F5C
:01000500FFFB
:01000600FFFA
:01000700DF19
:01000800FFF8
:01000A00FFF6
:01000B00FFF5
:00000001FF
