:020000040000FA
:0400000003EF00F01A
:020004000000FA
:0A000600400ED86FD96F896A886A2E
:100010000E018A960F010F01050E5F6F000E586FDB
:10002000010E576FFF0E5E6F5C6F5D6B000E566FBB
:10003000000E5B6F000E5A6F000E596F800E606EDF
:10004000040EAE6E0E01060EF86F8A82FA0EBC6EBA
:100050009C0EA86E200EA76E000EA66E010EBF6E3F
:10006000800EBD6E8A9235EF00F08586000000009C
:100070000000000085960000000000000000000065
:100080000000000000000000000000001200858653
:100090000000000000000000000000000000000060
:1000A0000000859600000000000000000000000035
:1000B000000000001200800E606E608060B05EEF95
:1000C00000F00F016450016E0F016350026E000ECC
:1000D0006460A7EC00F0200E64608DEC00F0400E30
:1000E000646090EC00F0600E646093EC00F0800EB1
:1000F000646096EC00F0A00E646099EC00F0C00E15
:1001000064609CEC00F0E00E6460A1EC00F0FF0E77
:100110006460A4EC00F033EF00F0010E836E120077
:10012000030E836E1200070E836E12000F0E836E95
:100130001200100E846E1200300E846E6F0EBC6EB4
:100140001200700E846E1200F00E846E1200836A2C
:04015000846A1200AB
:020000040030CA
:010000008C73
:01000100FFFF
:01000200FFFE
:01000300FFFD
:010004009F5C
:01000500FFFB
:01000600FFFA
:01000700DF19
:01000800FFF8
:01000A00FFF6
:01000B00FFF5
:00000001FF
