:020000040000FA
:0400000003EF00F01A
:020004000000FA
:0A0006000E01050E5F6F000E586F2B
:10001000010E576FFF0E5E6F5C6F5D6B000E566FCB
:10002000000E5B6F000E5A6F000E596F800E606EEF
:10003000070E896E300E886E0F0119951993010E07
:10004000006E016A026A010E036E020E046E040E57
:10005000056E080E066E100E076E200E086E400E1E
:10006000096E800E0A6E8EB49AEC00F08EA43BEFFF
:1000700000F03EEF00F001A082EC00F08EB29DECAB
:1000800000F08EA246EF00F049EF00F002A08EECE7
:1000900000F07DEC00F0010E006251EF00F0A0ECEA
:1000A00000F0020E006257EF00F0A3EC00F0030E28
:1000B00000625DEF00F0A6EC00F0040E006263EF5A
:1000C00000F0A9EC00F0050E006269EF00F0ACEC66
:1000D00000F0060E00626FEF00F0AFEC00F0070ECC
:1000E000006275EF00F0B2EC00F0080E00627BEFEA
:1000F00000F0B5EC00F033EF00F0000E846E000E5F
:10010000836E1200010E016E002A090E00628DEF4F
:1001100000F08BEF00F0010E006E1200010E026E77
:100120000006000E006299EF00F097EF00F0080E55
:10013000006E1200000E016E1200000E026E120020
:100140000350836E12000450836E12000550836EBC
:1001500012000650836E12000750846E1200085081
:10016000846E12000950846E12000A50846E1200D0
:020000040030CA
:01000000FC03
:01000100FFFF
:01000200FFFE
:01000300FFFD
:010004009F5C
:01000500FFFB
:01000600FFFA
:01000700DF19
:01000800FFF8
:01000A00FFF6
:01000B00FFF5
:00000001FF
