:020000040000FA
:0400000003EF00F01A
:020004000000FA
:0A0006000E01700ED86FD96F080EBE
:10001000DE6F010EDA6F0F01050E5F6F000E586F75
:100020000F0E576FFF0E5E6F5C6F5D6B000E566FAD
:10003000000E5B6F000E5A6F000E596F840E606EDB
:10004000040EAE6E0E01060EF86F8A82F90EBC6EBB
:100050008C0EA86E600EA76E010EA66E010EBF6E0E
:10006000800EBD6E8A92889088928894889689982E
:10007000899A899C899E8A9289828A9685868A94A1
:100080008584800E606E608060B044EF00F00F01E8
:100090006450226E0F016350236E010EA76E225032
:0600A000A66E41EF00F026
:020000040030CA
:010000008C73
:01000100FFFF
:01000200FFFE
:01000300FFFD
:010004009F5C
:01000500FFFB
:01000600FFFA
:01000700DF19
:01000800FFF8
:01000A00FFF6
:01000B00FFF5
:00000001FF
