:020000040000FA
:0400000003EF00F01A
:020004000000FA
:0A000600600ED86FD96F070E896EE7
:10001000300E886E0F01199519930E018A960F0103
:10002000050E5F6F000E586F0F0E576FFF0E5E6F5D
:100030005C6F5D6B000E566F000E5B6F000E5A6FAB
:10004000000E596F840E606E040EAE6E0E01060E29
:10005000F86F8A82C80EBC6E8C0EA86E010EA76E59
:10006000800EA66E010EBF6EB00EBD6E8A92800E1F
:10007000606E608060B03AEF00F00F0164500C6E6B
:100080000F0163500D6E010E006E016A026A0F6A65
:10009000010E036E020E046E040E056E080E066E4F
:1000A000100E076E200E086E400E096E800E0A6E4E
:1000B0008EB4E8EC00F08EA460EF00F063EF00F087
:1000C00001A0D7EC00F08EB2EBEC00F08EA26BEF4B
:1000D00000F06EEF00F002A0E3EC00F0D2EC00F0D4
:1000E000010E006276EF00F0EEEC00F0020E00620E
:1000F0007CEF00F021EC01F0030E006282EF00F0D3
:1001000054EC01F0040E006288EF00F057EC01F0AF
:10011000050E00628EEF00F05AEC01F0060E006250
:1001200094EF00F05DEC01F0070E00629AEF00F032
:1001300060EC01F0080E0062A0EF00F063EC01F04B
:1001400058EF00F0800E606E608060B0A5EF00F0A8
:100150000F0164500C6E0F0163500D6E000E646051
:10016000C3EC00F0330E6460C6EC00F0660E646011
:10017000C9EC00F0990E6460CCEC00F0FF0E6460F6
:10018000CFEC00F01200000E0F6E1200010E0F6E89
:100190001200020E0F6E1200030E0F6E1200040EFC
:1001A0000F6E1200000E846E000E836E1200010EA0
:1001B000016E002A090E0062E2EF00F0E0EF00F0AD
:1001C000010E006E1200010E026EA2EC00F0120091
:1001D000000E016E1200000E026E12000350836EBC
:1001E000000E0F62F8EF00F0F6EF00F0D2EC00F036
:1001F000010E0F6202EF01F0FEEF00F067EC04F079
:100200001BEC02F0020E0F620CEF01F008EF01F0A0
:1002100036EC04F0EAEC01F0030E0F6216EF01F089
:1002200012EF01F005EC04F0B9EC01F0040E0F62DE
:1002300020EF01F01CEF01F0D4EC03F088EC01F0AA
:1002400012000450836E000E0F622BEF01F029EFB5
:1002500001F0D2EC00F0010E0F6235EF01F031EF4A
:1002600001F0DFEC02F02BEC05F0020E0F623FEF25
:1002700001F03BEF01F0AEEC02F0FAEC04F0030EFB
:100280000F6249EF01F045EF01F07DEC02F0C9EC9F
:1002900004F0040E0F6253EF01F04FEF01F04CEC4D
:1002A00002F098EC04F012000550836E1200065024
:1002B000836E12000750846E12000850846E120084
:1002C0000950846E12000A50846E12008586000068
:1002D0000000000000000000859600000000000003
:1002E00000000000000000000000120085860000F1
:1002F00000000000000000000000000000000000FE
:1003000000008596000000000000000000001200C0
:1003100066EC01F066EC01F066EC01F066EC01F0D1
:1003200066EC01F066EC01F066EC01F066EC01F0C1
:1003300076EC01F066EC01F066EC01F066EC01F0A1
:1003400066EC01F066EC01F066EC01F066EC01F0A1
:1003500076EC01F066EC01F066EC01F066EC01F081
:1003600066EC01F066EC01F066EC01F066EC01F081
:10037000120066EC01F066EC01F066EC01F066EC50
:1003800001F066EC01F066EC01F066EC01F066EC61
:1003900001F066EC01F076EC01F066EC01F066EC41
:1003A00001F066EC01F066EC01F066EC01F066EC41
:1003B00001F066EC01F076EC01F066EC01F066EC21
:1003C00001F066EC01F066EC01F066EC01F066EC21
:1003D00001F0120066EC01F066EC01F066EC01F051
:1003E00066EC01F066EC01F066EC01F066EC01F001
:1003F00066EC01F066EC01F066EC01F076EC01F0E1
:1004000066EC01F066EC01F066EC01F066EC01F0E0
:1004100066EC01F066EC01F066EC01F076EC01F0C0
:1004200066EC01F066EC01F066EC01F066EC01F0C0
:1004300066EC01F0120066EC01F066EC01F066EC8F
:1004400001F066EC01F066EC01F066EC01F066ECA0
:1004500001F066EC01F066EC01F066EC01F066EC90
:1004600001F076EC01F066EC01F066EC01F066EC70
:1004700001F066EC01F066EC01F066EC01F066EC70
:1004800001F076EC01F066EC01F066EC01F066EC50
:1004900001F066EC01F0120076EC01F066EC01F080
:1004A00066EC01F066EC01F066EC01F066EC01F040
:1004B00066EC01F066EC01F076EC01F066EC01F020
:1004C00066EC01F066EC01F066EC01F066EC01F020
:1004D00066EC01F066EC01F066EC01F066EC01F010
:1004E00066EC01F066EC01F066EC01F066EC01F000
:1004F00066EC01F066EC01F0120066EC01F076ECBF
:1005000001F066EC01F066EC01F066EC01F066ECDF
:1005100001F066EC01F066EC01F066EC01F076ECBF
:1005200001F066EC01F066EC01F066EC01F066ECBF
:1005300001F066EC01F066EC01F066EC01F066ECAF
:1005400001F066EC01F066EC01F066EC01F066EC9F
:1005500001F066EC01F066EC01F0120066EC01F0CF
:1005600066EC01F076EC01F066EC01F066EC01F06F
:1005700066EC01F066EC01F066EC01F066EC01F06F
:1005800066EC01F076EC01F066EC01F066EC01F04F
:1005900066EC01F066EC01F066EC01F066EC01F04F
:1005A00066EC01F066EC01F066EC01F066EC01F03F
:1005B00066EC01F066EC01F066EC01F0120066EC0E
:1005C00001F066EC01F066EC01F076EC01F066EC0F
:1005D00001F066EC01F066EC01F066EC01F066EC0F
:1005E00001F066EC01F066EC01F076EC01F066ECEF
:1005F00001F066EC01F066EC01F066EC01F066ECEF
:1006000001F066EC01F066EC01F066EC01F066ECDE
:1006100001F066EC01F066EC01F066EC01F012000E
:1006200076EC01F066EC01F066EC01F066EC01F0AE
:1006300066EC01F066EC01F066EC01F066EC01F0AE
:1006400066EC01F066EC01F066EC01F066EC01F09E
:1006500066EC01F066EC01F066EC01F066EC01F08E
:1006600066EC01F066EC01F066EC01F066EC01F07E
:1006700066EC01F066EC01F066EC01F066EC01F06E
:10068000120066EC01F076EC01F066EC01F066EC2D
:1006900001F066EC01F066EC01F066EC01F066EC4E
:1006A00001F066EC01F066EC01F066EC01F066EC3E
:1006B00001F066EC01F066EC01F066EC01F066EC2E
:1006C00001F066EC01F066EC01F066EC01F066EC1E
:1006D00001F066EC01F066EC01F066EC01F066EC0E
:1006E00001F0120066EC01F066EC01F076EC01F02E
:1006F00066EC01F066EC01F066EC01F066EC01F0EE
:1007000066EC01F066EC01F066EC01F066EC01F0DD
:1007100066EC01F066EC01F066EC01F066EC01F0CD
:1007200066EC01F066EC01F066EC01F066EC01F0BD
:1007300066EC01F066EC01F066EC01F066EC01F0AD
:1007400066EC01F0120066EC01F066EC01F066EC7C
:1007500001F076EC01F066EC01F066EC01F066EC7D
:1007600001F066EC01F066EC01F066EC01F066EC7D
:1007700001F066EC01F066EC01F066EC01F066EC6D
:1007800001F066EC01F066EC01F066EC01F066EC5D
:1007900001F066EC01F066EC01F066EC01F066EC4D
:1007A00001F066EC01F0120066EC01F066EC01F07D
:1007B00066EC01F066EC01F066EC01F066EC01F02D
:1007C00066EC01F066EC01F076EC01F066EC01F00D
:1007D00066EC01F066EC01F066EC01F066EC01F00D
:1007E00066EC01F066EC01F066EC01F066EC01F0FD
:1007F00066EC01F066EC01F066EC01F066EC01F0ED
:1008000066EC01F066EC01F0120066EC01F066ECBB
:1008100001F066EC01F066EC01F066EC01F066ECCC
:1008200001F066EC01F066EC01F066EC01F076ECAC
:1008300001F066EC01F066EC01F066EC01F066ECAC
:1008400001F066EC01F066EC01F066EC01F066EC9C
:1008500001F066EC01F066EC01F066EC01F066EC8C
:1008600001F066EC01F066EC01F0120066EC01F0BC
:1008700066EC01F066EC01F066EC01F066EC01F06C
:1008800066EC01F066EC01F066EC01F066EC01F05C
:1008900066EC01F076EC01F066EC01F066EC01F03C
:1008A00066EC01F066EC01F066EC01F066EC01F03C
:1008B00066EC01F066EC01F066EC01F066EC01F02C
:1008C00066EC01F066EC01F066EC01F0120066ECFB
:1008D00001F066EC01F066EC01F066EC01F066EC0C
:1008E00001F066EC01F066EC01F066EC01F066ECFC
:1008F00001F066EC01F066EC01F076EC01F066ECDC
:1009000001F066EC01F066EC01F066EC01F066ECDB
:1009100001F066EC01F066EC01F066EC01F066ECCB
:1009200001F066EC01F066EC01F066EC01F01200FB
:1009300066EC01F066EC01F066EC01F066EC01F0AB
:1009400066EC01F066EC01F066EC01F066EC01F09B
:1009500066EC01F066EC01F066EC01F066EC01F08B
:1009600066EC01F066EC01F066EC01F066EC01F07B
:1009700076EC01F066EC01F066EC01F066EC01F05B
:1009800066EC01F066EC01F066EC01F066EC01F05B
:10099000120066EC01F066EC01F066EC01F066EC2A
:1009A00001F066EC01F066EC01F066EC01F066EC3B
:1009B00001F066EC01F066EC01F066EC01F066EC2B
:1009C00001F066EC01F066EC01F066EC01F066EC1B
:1009D00001F066EC01F076EC01F066EC01F066ECFB
:1009E00001F066EC01F066EC01F066EC01F066ECFB
:1009F00001F0120066EC01F066EC01F066EC01F02B
:100A000066EC01F066EC01F066EC01F066EC01F0DA
:100A100066EC01F066EC01F066EC01F066EC01F0CA
:100A200066EC01F066EC01F066EC01F066EC01F0BA
:100A300066EC01F066EC01F066EC01F076EC01F09A
:100A400066EC01F066EC01F066EC01F066EC01F09A
:100A500066EC01F0120066EC01F066EC01F066EC69
:100A600001F066EC01F066EC01F066EC01F066EC7A
:100A700001F066EC01F066EC01F066EC01F066EC6A
:100A800001F066EC01F066EC01F066EC01F066EC5A
:100A900001F066EC01F066EC01F066EC01F066EC4A
:100AA00001F076EC01F066EC01F066EC01F066EC2A
:080AB00001F066EC01F01200F8
:020000040030CA
:010000008C73
:01000100FFFF
:01000200FFFE
:01000300FFFD
:010004009F5C
:01000500FFFB
:01000600FFFA
:01000700DF19
:01000800FFF8
:01000A00FFF6
:01000B00FFF5
:00000001FF
