:020000040000FA
:0400000003EF00F01A
:020004000000FA
:0A000600070E896E300E886E0F01A0
:10001000199519930E018A960F01050E5F6F000E58
:10002000586F0F0E576FFF0E5E6F5C6F5D6B000EAB
:10003000566F000E5B6F000E5A6F000E596F840EE4
:10004000606E040EAE6E0E01060EF86F8A82C80E48
:10005000BC6E8C0EA86E010EA76E800EA66E010EF1
:10006000BF6EB00EBD6E8A92800E606E608060B012
:1000700037EF00F00F0164500C6E0F0163500D6EEE
:10008000898019918A948584010E006E016A026A42
:100090000F6A106A146A010E036E020E046E040EDB
:1000A000056E080E066E100E076E300E086E700E8E
:1000B000096EF00E0A6E116A8EA0116A8EB011B030
:1000C00065EF00F01080010E116E8EB409EC01F0A6
:1000D0008EA46DEF00F070EF00F001A0F6EC00F0E0
:1000E0008EB20CEC01F08EA278EF00F07BEF00F006
:1000F00002A003EC01F0F1EC00F0010E006283EFCE
:1001000000F00FEC01F0020E006289EF00F095ECB8
:1001100001F0030E00628FEF00F0DFEC02F0040E3E
:10012000006295EF00F0C5EC06F0010E0F629BEF48
:1001300000F0D0EC00F0020E0F62A1EF00F0D3EC63
:1001400000F0030E0F62A7EF00F0D6EC00F0040EF3
:100150000F62ADEF00F0D9EC00F05CEF00F0800E24
:10016000606E608060B0B2EF00F00F0164500C6E02
:100170000F0163500D6E000E6460DCEC00F0020EA7
:100180006460DFEC00F0550E6460E2EC00F0AA0E53
:100190006460E7EC00F0FD0E6460ECEC00F012002F
:1001A0000750846E12000850846E12000950846E4D
:1001B00012000A50846E1200000E0F6E1200010E23
:1001C0000F6E1200020E0F6E0850846E1200030EA6
:1001D0000F6E0950846E1200040E0F6E0A50846E6A
:1001E0001200000E846E000E836E1200010E016E6E
:1001F000106E002A050E006202EF01F000EF01F020
:10020000010E006E1200010E026E106EAFEC00F0D7
:100210001200000E016E1200000E026E120003505A
:10022000836E10A01200000E106E0F621CEF01F022
:100230001AEF01F0F1EC00F0010E0F623AEF01F05D
:1002400022EF01F0CAEC0AF0D5EC09F0CAEC0AF092
:1002500089EC07F0CAEC0AF0700E146E03EC0BF098
:10026000D5EC09F0CAEC0AF011EC09F0CAEC0AF07E
:1002700089EC07F0020E0F6258EF01F040EF01F039
:10028000CAEC0AF0A4EC09F0CAEC0AF058EC07F04A
:10029000CAEC0AF0700E146E03EC0BF0A4EC09F03B
:1002A000CAEC0AF0E0EC08F0CAEC0AF058EC07F0EF
:1002B000030E0F6276EF01F05EEF01F0CAEC0AF078
:1002C00073EC09F0CAEC0AF027EC07F0CAEC0AF06C
:1002D000700E146E03EC0BF073EC09F0CAEC0AF02C
:1002E000AFEC08F0CAEC0AF027EC07F0040E0F623E
:1002F00094EF01F07CEF01F0CAEC0AF042EC09F057
:10030000CAEC0AF0F6EC06F0CAEC0AF0700E146EB5
:1003100003EC0BF042EC09F0CAEC0AF07EEC08F0BA
:10032000CAEC0AF0F6EC06F012000450836E10A03E
:100330001200000E106E0F62A2EF01F0A0EF01F0AC
:10034000F1EC00F0010E0F62F8EF01F0A8EF01F000
:10035000D5EC09F099EC0AF0D5EC09F099EC0AF02B
:1003600011EC09F0200E146E03EC0BF0CAEC0AF04D
:10037000CAEC0AF0CAEC0AF0CAEC0AF0CAEC0AF0BD
:10038000200E146E03EC0BF04DEC08F099EC0AF023
:100390004DEC08F099EC0AF089EC07F0200E146E91
:1003A00003EC0BF0CAEC0AF0CAEC0AF0CAEC0AF053
:1003B000CAEC0AF0CAEC0AF0200E146E03EC0BF043
:1003C0004DEC08F099EC0AF04DEC08F099EC0AF0CD
:1003D00089EC07F0200E146E03EC0BF0CAEC0AF067
:1003E000CAEC0AF0CAEC0AF0CAEC0AF0CAEC0AF04D
:1003F000020E0F624EEF02F0FEEF01F0A4EC09F0E6
:1004000068EC0AF0A4EC09F068EC0AF0E0EC08F003
:10041000200E146E03EC0BF0CAEC0AF0CAEC0AF0E2
:10042000CAEC0AF0CAEC0AF0CAEC0AF0200E146E0C
:1004300003EC0BF01CEC08F068EC0AF01CEC08F084
:1004400068EC0AF058EC07F0200E146E03EC0BF089
:10045000CAEC0AF0CAEC0AF0CAEC0AF0CAEC0AF0DC
:10046000CAEC0AF0200E146E03EC0BF01CEC08F042
:1004700068EC0AF01CEC08F068EC0AF058EC07F0A5
:10048000200E146E03EC0BF0CAEC0AF0CAEC0AF072
:10049000CAEC0AF0CAEC0AF0CAEC0AF0030E0F62CA
:1004A000A4EF02F054EF02F073EC09F037EC0AF01D
:1004B00073EC09F037EC0AF0AFEC08F0200E146E84
:1004C00003EC0BF0CAEC0AF0CAEC0AF0CAEC0AF032
:1004D000CAEC0AF0CAEC0AF0200E146E03EC0BF022
:1004E000EBEC07F037EC0AF0EBEC07F037EC0AF036
:1004F00027EC07F0200E146E03EC0BF0CAEC0AF0A8
:10050000CAEC0AF0CAEC0AF0CAEC0AF0CAEC0AF02B
:10051000200E146E03EC0BF0EBEC07F037EC0AF056
:10052000EBEC07F037EC0AF027EC07F0200E146E26
:1005300003EC0BF0CAEC0AF0CAEC0AF0CAEC0AF0C1
:10054000CAEC0AF0CAEC0AF0040E0F62DEEF02F009
:10055000AAEF02F0BAEC07F006EC0AF0BAEC07F0EA
:1005600006EC0AF0F6EC06F0350E146E03EC0BF018
:10057000CAEC0AF0CAEC0AF0CAEC0AF0CAEC0AF0BB
:10058000CAEC0AF0700E146E03EC0BF0BAEC07F034
:1005900006EC0AF0BAEC07F006EC0AF0F6EC06F00E
:1005A000350E146E03EC0BF0CAEC0AF0CAEC0AF03C
:1005B000CAEC0AF0CAEC0AF0CAEC0AF012000450C5
:1005C000836E10A01200000E106E0F62ECEF02F0AE
:1005D000EAEF02F0F1EC00F0010E0F62E2EF03F03F
:1005E000F2EF02F0D5EC09F099EC0AF0D5EC09F045
:1005F00099EC0AF011EC09F00A0E146E03EC0BF002
:10060000CAEC0AF0CAEC0AF0CAEC0AF0CAEC0AF02A
:10061000CAEC0AF00A0E146E03EC0BF04DEC08F075
:1006200099EC0AF04DEC08F099EC0AF089EC07F02F
:100630000A0E146E03EC0BF0CAEC0AF0CAEC0AF0D6
:10064000CAEC0AF0CAEC0AF0CAEC0AF00A0E146E00
:1006500003EC0BF04DEC08F099EC0AF04DEC08F0CF
:1006600099EC0AF089EC07F00A0E146E03EC0BF01B
:10067000CAEC0AF0CAEC0AF0CAEC0AF0CAEC0AF0BA
:10068000CAEC0AF0D5EC09F099EC0AF0D5EC09F0C7
:1006900099EC0AF011EC09F00A0E146E03EC0BF061
:1006A000CAEC0AF0CAEC0AF0CAEC0AF0CAEC0AF08A
:1006B000CAEC0AF00A0E146E03EC0BF04DEC08F0D5
:1006C00099EC0AF04DEC08F099EC0AF089EC07F08F
:1006D0000A0E146E03EC0BF0CAEC0AF0CAEC0AF036
:1006E000CAEC0AF0CAEC0AF0CAEC0AF00A0E146E60
:1006F00003EC0BF04DEC08F099EC0AF04DEC08F02F
:1007000099EC0AF089EC07F00A0E146E03EC0BF07A
:10071000CAEC0AF0CAEC0AF0CAEC0AF0CAEC0AF019
:10072000CAEC0AF0D5EC09F099EC0AF0D5EC09F026
:1007300099EC0AF011EC09F00A0E146E03EC0BF0C0
:10074000CAEC0AF0CAEC0AF0CAEC0AF0CAEC0AF0E9
:10075000CAEC0AF00A0E146E03EC0BF04DEC08F034
:1007600099EC0AF04DEC08F099EC0AF089EC07F0EE
:100770000A0E146E03EC0BF0CAEC0AF0CAEC0AF095
:10078000CAEC0AF0CAEC0AF0CAEC0AF00A0E146EBF
:1007900003EC0BF04DEC08F099EC0AF04DEC08F08E
:1007A00099EC0AF089EC07F00A0E146E03EC0BF0DA
:1007B000CAEC0AF0CAEC0AF0CAEC0AF0CAEC0AF079
:1007C000CAEC0AF0030E0F62CEEF05F0DEEF04F084
:1007D000A4EC09F068EC0AF0A4EC09F068EC0AF06B
:1007E000E0EC08F00A0E146E03EC0BF0CAEC0AF011
:1007F000CAEC0AF0CAEC0AF0CAEC0AF0CAEC0AF039
:100800000A0E146E03EC0BF01CEC08F068EC0AF016
:100810001CEC08F068EC0AF058EC07F00A0E146EB5
:1008200003EC0BF0CAEC0AF0CAEC0AF0CAEC0AF0CE
:10083000CAEC0AF0CAEC0AF00A0E146E03EC0BF0D4
:100840001CEC08F068EC0AF01CEC08F068EC0AF00C
:1008500058EC07F00A0E146E03EC0BF0CAEC0AF029
:10086000CAEC0AF0CAEC0AF0CAEC0AF0CAEC0AF0C8
:10087000A4EC09F068EC0AF0A4EC09F068EC0AF0CA
:10088000E0EC08F00A0E146E03EC0BF0CAEC0AF070
:10089000CAEC0AF0CAEC0AF0CAEC0AF0CAEC0AF098
:1008A0000A0E146E03EC0BF01CEC08F068EC0AF076
:1008B0001CEC08F068EC0AF058EC07F00A0E146E15
:1008C00003EC0BF0CAEC0AF0CAEC0AF0CAEC0AF02E
:1008D000CAEC0AF0CAEC0AF00A0E146E03EC0BF034
:1008E0001CEC08F068EC0AF01CEC08F068EC0AF06C
:1008F00058EC07F00A0E146E03EC0BF0CAEC0AF089
:10090000CAEC0AF0CAEC0AF0CAEC0AF0CAEC0AF027
:10091000A4EC09F068EC0AF0A4EC09F068EC0AF029
:10092000E0EC08F00A0E146E03EC0BF0CAEC0AF0CF
:10093000CAEC0AF0CAEC0AF0CAEC0AF0CAEC0AF0F7
:100940000A0E146E03EC0BF01CEC08F068EC0AF0D5
:100950001CEC08F068EC0AF058EC07F00A0E146E74
:1009600003EC0BF0CAEC0AF0CAEC0AF0CAEC0AF08D
:10097000CAEC0AF0CAEC0AF00A0E146E03EC0BF093
:100980001CEC08F068EC0AF01CEC08F068EC0AF0CB
:1009900058EC07F00A0E146E03EC0BF0CAEC0AF0E8
:1009A000CAEC0AF0CAEC0AF0CAEC0AF0CAEC0AF087
:1009B000030E0F62CEEF05F0DEEF04F073EC09F0EA
:1009C00037EC0AF073EC09F037EC0AF0AFEC08F002
:1009D0000A0E146E03EC0BF0CAEC0AF0CAEC0AF033
:1009E000CAEC0AF0CAEC0AF0CAEC0AF00A0E146E5D
:1009F00003EC0BF0EBEC07F037EC0AF0EBEC07F054
:100A000037EC0AF027EC07F00A0E146E03EC0BF03B
:100A1000CAEC0AF0CAEC0AF0CAEC0AF0CAEC0AF016
:100A2000CAEC0AF00A0E146E03EC0BF0EBEC07F0C4
:100A300037EC0AF0EBEC07F037EC0AF027EC07F0A4
:100A40000A0E146E03EC0BF0CAEC0AF0CAEC0AF0C2
:100A5000CAEC0AF0CAEC0AF0CAEC0AF073EC09F02E
:100A600037EC0AF073EC09F037EC0AF0AFEC08F061
:100A70000A0E146E03EC0BF0CAEC0AF0CAEC0AF092
:100A8000CAEC0AF0CAEC0AF0CAEC0AF00A0E146EBC
:100A900003EC0BF0EBEC07F037EC0AF0EBEC07F0B3
:100AA00037EC0AF027EC07F00A0E146E03EC0BF09B
:100AB000CAEC0AF0CAEC0AF0CAEC0AF0CAEC0AF076
:100AC000CAEC0AF00A0E146E03EC0BF0EBEC07F024
:100AD00037EC0AF0EBEC07F037EC0AF027EC07F004
:100AE0000A0E146E03EC0BF0CAEC0AF0CAEC0AF022
:100AF000CAEC0AF0CAEC0AF0CAEC0AF073EC09F08E
:100B000037EC0AF073EC09F037EC0AF0AFEC08F0C0
:100B10000A0E146E03EC0BF0CAEC0AF0CAEC0AF0F1
:100B2000CAEC0AF0CAEC0AF0CAEC0AF00A0E146E1B
:100B300003EC0BF0EBEC07F037EC0AF0EBEC07F012
:100B400037EC0AF027EC07F00A0E146E03EC0BF0FA
:100B5000CAEC0AF0CAEC0AF0CAEC0AF0CAEC0AF0D5
:100B6000CAEC0AF00A0E146E03EC0BF0EBEC07F083
:100B700037EC0AF0EBEC07F037EC0AF027EC07F063
:100B80000A0E146E03EC0BF0CAEC0AF0CAEC0AF081
:100B9000CAEC0AF0CAEC0AF0CAEC0AF0040E0F62C2
:100BA000C4EF06F0D4EF05F042EC09F006EC0AF0D1
:100BB00042EC09F006EC0AF07EEC08F00A0E146E26
:100BC00003EC0BF0CAEC0AF0CAEC0AF0CAEC0AF02B
:100BD000CAEC0AF0CAEC0AF00A0E146E03EC0BF031
:100BE000BAEC07F006EC0AF0BAEC07F006EC0AF0F3
:100BF000F6EC06F00A0E146E03EC0BF0CAEC0AF0E9
:100C0000CAEC0AF0CAEC0AF0CAEC0AF0CAEC0AF024
:100C10000A0E146E03EC0BF0BAEC07F006EC0AF0C7
:100C2000BAEC07F006EC0AF0F6EC06F00A0E146EC9
:100C300003EC0BF0CAEC0AF0CAEC0AF0CAEC0AF0BA
:100C4000CAEC0AF0CAEC0AF042EC09F006EC0AF031
:100C500042EC09F006EC0AF07EEC08F00A0E146E85
:100C600003EC0BF0CAEC0AF0CAEC0AF0CAEC0AF08A
:100C7000CAEC0AF0CAEC0AF00A0E146E03EC0BF090
:100C8000BAEC07F006EC0AF0BAEC07F006EC0AF052
:100C9000F6EC06F00A0E146E03EC0BF0CAEC0AF048
:100CA000CAEC0AF0CAEC0AF0CAEC0AF0CAEC0AF084
:100CB0000A0E146E03EC0BF0BAEC07F006EC0AF027
:100CC000BAEC07F006EC0AF0F6EC06F00A0E146E29
:100CD00003EC0BF0CAEC0AF0CAEC0AF0CAEC0AF01A
:100CE000CAEC0AF0CAEC0AF042EC09F006EC0AF091
:100CF00042EC09F006EC0AF07EEC08F00A0E146EE5
:100D000003EC0BF0CAEC0AF0CAEC0AF0CAEC0AF0E9
:100D1000CAEC0AF0CAEC0AF00A0E146E03EC0BF0EF
:100D2000BAEC07F006EC0AF0BAEC07F006EC0AF0B1
:100D3000F6EC06F00A0E146E03EC0BF0CAEC0AF0A7
:100D4000CAEC0AF0CAEC0AF0CAEC0AF0CAEC0AF0E3
:100D50000A0E146E03EC0BF0BAEC07F006EC0AF086
:100D6000BAEC07F006EC0AF0F6EC06F00A0E146E88
:100D700003EC0BF0CAEC0AF0CAEC0AF0CAEC0AF079
:100D8000CAEC0AF0CAEC0AF012000650836E120098
:100D90000750846E12000850846E12000950846E51
:100DA00012000A50846E12008586000000000000C8
:100DB0000000000085960000000000000000000018
:100DC0000000000000001200858600000000000006
:100DD00000000000000000000000000000008596F8
:100DE000000000000000000000001200D4EC06F03B
:100DF000D4EC06F0D4EC06F0D4EC06F0D4EC06F01B
:100E0000D4EC06F0D4EC06F0D4EC06F0E4EC06F0FA
:100E1000D4EC06F0D4EC06F0D4EC06F0D4EC06F0FA
:100E2000D4EC06F0D4EC06F0D4EC06F0E4EC06F0DA
:100E3000D4EC06F0D4EC06F0D4EC06F0D4EC06F0DA
:100E4000D4EC06F0D4EC06F0D4EC06F01200D4ECAE
:100E500006F0D4EC06F0D4EC06F0D4EC06F0D4ECBA
:100E600006F0D4EC06F0D4EC06F0D4EC06F0D4ECAA
:100E700006F0E4EC06F0D4EC06F0D4EC06F0D4EC8A
:100E800006F0D4EC06F0D4EC06F0D4EC06F0D4EC8A
:100E900006F0E4EC06F0D4EC06F0D4EC06F0D4EC6A
:100EA00006F0D4EC06F0D4EC06F0D4EC06F0120018
:100EB000D4EC06F0D4EC06F0D4EC06F0D4EC06F05A
:100EC000D4EC06F0D4EC06F0D4EC06F0D4EC06F04A
:100ED000D4EC06F0D4EC06F0E4EC06F0D4EC06F02A
:100EE000D4EC06F0D4EC06F0D4EC06F0D4EC06F02A
:100EF000D4EC06F0D4EC06F0E4EC06F0D4EC06F00A
:100F0000D4EC06F0D4EC06F0D4EC06F0D4EC06F009
:100F10001200D4EC06F0D4EC06F0D4EC06F0D4ECDD
:100F200006F0D4EC06F0D4EC06F0D4EC06F0D4ECE9
:100F300006F0D4EC06F0D4EC06F0D4EC06F0E4ECC9
:100F400006F0D4EC06F0D4EC06F0D4EC06F0D4ECC9
:100F500006F0D4EC06F0D4EC06F0D4EC06F0E4ECA9
:100F600006F0D4EC06F0D4EC06F0D4EC06F0D4ECA9
:100F700006F01200E4EC06F0D4EC06F0D4EC06F037
:100F8000D4EC06F0D4EC06F0D4EC06F0D4EC06F089
:100F9000D4EC06F0E4EC06F0D4EC06F0D4EC06F069
:100FA000D4EC06F0D4EC06F0D4EC06F0D4EC06F069
:100FB000D4EC06F0D4EC06F0D4EC06F0D4EC06F059
:100FC000D4EC06F0D4EC06F0D4EC06F0D4EC06F049
:100FD000D4EC06F01200D4EC06F0E4EC06F0D4EC0D
:100FE00006F0D4EC06F0D4EC06F0D4EC06F0D4EC29
:100FF00006F0D4EC06F0D4EC06F0E4EC06F0D4EC09
:1010000006F0D4EC06F0D4EC06F0D4EC06F0D4EC08
:1010100006F0D4EC06F0D4EC06F0D4EC06F0D4ECF8
:1010200006F0D4EC06F0D4EC06F0D4EC06F0D4ECE8
:1010300006F0D4EC06F01200D4EC06F0D4EC06F086
:10104000E4EC06F0D4EC06F0D4EC06F0D4EC06F0B8
:10105000D4EC06F0D4EC06F0D4EC06F0D4EC06F0B8
:10106000E4EC06F0D4EC06F0D4EC06F0D4EC06F098
:10107000D4EC06F0D4EC06F0D4EC06F0D4EC06F098
:10108000D4EC06F0D4EC06F0D4EC06F0D4EC06F088
:10109000D4EC06F0D4EC06F01200D4EC06F0D4EC5C
:1010A00006F0D4EC06F0E4EC06F0D4EC06F0D4EC58
:1010B00006F0D4EC06F0D4EC06F0D4EC06F0D4EC58
:1010C00006F0D4EC06F0E4EC06F0D4EC06F0D4EC38
:1010D00006F0D4EC06F0D4EC06F0D4EC06F0D4EC38
:1010E00006F0D4EC06F0D4EC06F0D4EC06F0D4EC28
:1010F00006F0D4EC06F0D4EC06F01200E4EC06F0B6
:10110000E4EC06F0E4EC06F0E4EC06F0E4EC06F0C7
:10111000E4EC06F0E4EC06F0E4EC06F0D4EC06F0C7
:10112000D4EC06F0D4EC06F0D4EC06F0D4EC06F0E7
:10113000D4EC06F0D4EC06F0D4EC06F0D4EC06F0D7
:10114000D4EC06F0D4EC06F0D4EC06F0D4EC06F0C7
:10115000D4EC06F0D4EC06F0D4EC06F01200D4EC9B
:1011600006F0E4EC06F0D4EC06F0D4EC06F0D4EC97
:1011700006F0D4EC06F0D4EC06F0D4EC06F0D4EC97
:1011800006F0D4EC06F0D4EC06F0D4EC06F0D4EC87
:1011900006F0D4EC06F0D4EC06F0D4EC06F0D4EC77
:1011A00006F0D4EC06F0D4EC06F0D4EC06F0D4EC67
:1011B00006F0D4EC06F0D4EC06F0D4EC06F0120005
:1011C000D4EC06F0D4EC06F0E4EC06F0D4EC06F037
:1011D000D4EC06F0D4EC06F0D4EC06F0D4EC06F037
:1011E000D4EC06F0D4EC06F0D4EC06F0D4EC06F027
:1011F000D4EC06F0D4EC06F0D4EC06F0D4EC06F017
:10120000D4EC06F0D4EC06F0D4EC06F0D4EC06F006
:10121000D4EC06F0D4EC06F0D4EC06F0D4EC06F0F6
:101220001200D4EC06F0D4EC06F0D4EC06F0E4ECBA
:1012300006F0D4EC06F0D4EC06F0D4EC06F0D4ECD6
:1012400006F0D4EC06F0D4EC06F0D4EC06F0D4ECC6
:1012500006F0D4EC06F0D4EC06F0D4EC06F0D4ECB6
:1012600006F0D4EC06F0D4EC06F0D4EC06F0D4ECA6
:1012700006F0D4EC06F0D4EC06F0D4EC06F0D4EC96
:1012800006F01200D4EC06F0D4EC06F0D4EC06F034
:10129000D4EC06F0D4EC06F0D4EC06F0D4EC06F076
:1012A000D4EC06F0E4EC06F0E4EC06F0E4EC06F036
:1012B000E4EC06F0E4EC06F0E4EC06F0E4EC06F016
:1012C000E4EC06F0D4EC06F0D4EC06F0D4EC06F036
:1012D000D4EC06F0D4EC06F0D4EC06F0D4EC06F036
:1012E000D4EC06F01200D4EC06F0D4EC06F0D4EC0A
:1012F00006F0D4EC06F0D4EC06F0D4EC06F0D4EC16
:1013000006F0D4EC06F0D4EC06F0E4EC06F0D4ECF5
:1013100006F0D4EC06F0D4EC06F0D4EC06F0D4ECF5
:1013200006F0D4EC06F0D4EC06F0D4EC06F0D4ECE5
:1013300006F0D4EC06F0D4EC06F0D4EC06F0D4ECD5
:1013400006F0D4EC06F01200D4EC06F0D4EC06F073
:10135000D4EC06F0D4EC06F0D4EC06F0D4EC06F0B5
:10136000D4EC06F0D4EC06F0D4EC06F0D4EC06F0A5
:10137000E4EC06F0D4EC06F0D4EC06F0D4EC06F085
:10138000D4EC06F0D4EC06F0D4EC06F0D4EC06F085
:10139000D4EC06F0D4EC06F0D4EC06F0D4EC06F075
:1013A000D4EC06F0D4EC06F01200D4EC06F0D4EC49
:1013B00006F0D4EC06F0D4EC06F0D4EC06F0D4EC55
:1013C00006F0D4EC06F0D4EC06F0D4EC06F0D4EC45
:1013D00006F0D4EC06F0E4EC06F0D4EC06F0D4EC25
:1013E00006F0D4EC06F0D4EC06F0D4EC06F0D4EC25
:1013F00006F0D4EC06F0D4EC06F0D4EC06F0D4EC15
:1014000006F0D4EC06F0D4EC06F01200D4EC06F0B2
:10141000D4EC06F0D4EC06F0D4EC06F0D4EC06F0F4
:10142000D4EC06F0D4EC06F0D4EC06F0D4EC06F0E4
:10143000D4EC06F0D4EC06F0D4EC06F0D4EC06F0D4
:10144000D4EC06F0D4EC06F0D4EC06F0E4EC06F0B4
:10145000E4EC06F0E4EC06F0E4EC06F0E4EC06F074
:10146000E4EC06F0E4EC06F0E4EC06F01200D4EC58
:1014700006F0D4EC06F0D4EC06F0D4EC06F0D4EC94
:1014800006F0D4EC06F0D4EC06F0D4EC06F0D4EC84
:1014900006F0D4EC06F0D4EC06F0D4EC06F0D4EC74
:1014A00006F0D4EC06F0D4EC06F0D4EC06F0D4EC64
:1014B00006F0E4EC06F0D4EC06F0D4EC06F0D4EC44
:1014C00006F0D4EC06F0D4EC06F0D4EC06F01200F2
:1014D000D4EC06F0D4EC06F0D4EC06F0D4EC06F034
:1014E000D4EC06F0D4EC06F0D4EC06F0D4EC06F024
:1014F000D4EC06F0D4EC06F0D4EC06F0D4EC06F014
:10150000D4EC06F0D4EC06F0D4EC06F0D4EC06F003
:10151000D4EC06F0D4EC06F0E4EC06F0D4EC06F0E3
:10152000D4EC06F0D4EC06F0D4EC06F0D4EC06F0E3
:101530001200D4EC06F0D4EC06F0D4EC06F0D4ECB7
:1015400006F0D4EC06F0D4EC06F0D4EC06F0D4ECC3
:1015500006F0D4EC06F0D4EC06F0D4EC06F0D4ECB3
:1015600006F0D4EC06F0D4EC06F0D4EC06F0D4ECA3
:1015700006F0D4EC06F0D4EC06F0D4EC06F0E4EC83
:1015800006F0D4EC06F0D4EC06F0D4EC06F0D4EC83
:1015900006F01200D4EC06F0D4EC06F0D4EC06F021
:1015A000D4EC06F0D4EC06F0D4EC06F0D4EC06F063
:1015B000D4EC06F0D4EC06F0D4EC06F0D4EC06F053
:1015C000D4EC06F0D4EC06F0D4EC06F0D4EC06F043
:1015D000D4EC06F0D4EC06F0D4EC06F0D4EC06F033
:1015E000D4EC06F0D4EC06F0D4EC06F0D4EC06F023
:1015F000D4EC06F01200126A0000122AFF0E1262EA
:10160000FCEF0AF01200136A0000FBEC0AF0132A48
:0A1610001450136205EF0BF01200F6
:020000040030CA
:010000008C73
:01000100FFFF
:01000200FFFE
:01000300FFFD
:010004009F5C
:01000500FFFB
:01000600FFFA
:01000700DF19
:01000800FFF8
:01000A00FFF6
:01000B00FFF5
:00000001FF
