:020000040000FA
:0400000003EF00F01A
:020004000000FA
:0A000600600ED86FD96F070E896EE7
:10001000300E886E0F01199519930E018A960F0103
:10002000050E5F6F000E586F0F0E576FFF0E5E6F5D
:100030005C6F5D6B000E566F000E5B6F000E5A6FAB
:10004000000E596F840E606E040EAE6E0E01060E29
:10005000F86F8A82C80EBC6E8C0EA86E010EA76E59
:10006000800EA66E010EBF6EB00EBD6E8A92800E1F
:10007000606E608060B03AEF00F00F0164500C6E6B
:100080000F0163500D6E89801991000E886E8EB03D
:100090004FEC00F08EA052EC00F047EF00F0010EA4
:0A00A000836E1200000E836E120042
:020000040030CA
:010000008C73
:01000100FFFF
:01000200FFFE
:01000300FFFD
:010004009F5C
:01000500FFFB
:01000600FFFA
:01000700DF19
:01000800FFF8
:01000A00FFF6
:01000B00FFF5
:00000001FF
